:100000000C9463000C948B000C948B000C944909A5
:100010000C9449090C9449090C948B000C948B00A6
:100020000C948B000C948B000C948B000C948B0024
:100030000C948B000C948B000C948B000C948B0014
:100040000C94A7080C948B000C9417090C94F108DD
:100050000C948B000C948B000C948B000C948B00F4
:100060000C948B000C948B000000000023002600F1
:10007000290000000000240027002A0000000000E2
:10008000250028002B0004040404040404040202D4
:100090000202020203030303030301020408102007
:1000A0004080010204081020010204081020000012
:1000B0000008000201000003040700000000000027
:1000C0000000690A0E0A11241FBECFEFD8E0DEBF80
:1000D000CDBF11E0A0E0B1E0E4EDF8E202C0059090
:1000E0000D92A039B107D9F723E0A0E9B1E001C032
:1000F0001D92A13BB207E1F710E0C2E6D0E004C0D8
:100100002197FE010E946512C136D107C9F70E94EE
:10011000260C0C945D140C9400008091120288232C
:1001200029F0809113029091140208958BEB92E0D4
:100130000895FC015081418132812381652F742F04
:10014000832F922F089590E0FC01E255FF4F2491F8
:10015000FC01E656FF4F3491FC01EA57FF4FE49152
:10016000EE23C9F0222339F0233001F1A8F4213025
:1001700019F1223029F1F0E0EE0FFF1FE458FF4F94
:10018000A591B4918FB7F894EC91611126C0309588
:100190003E233C938FBF08952730A9F02830C9F043
:1001A000243049F7809180008F7D03C080918000CA
:1001B0008F7780938000DFCF84B58F7784BDDBCFCE
:1001C00084B58F7DFBCF8091B0008F778093B00096
:1001D000D2CF8091B0008F7DF9CF3E2BDACFCF9375
:1001E000DF9390E0FC01E656FF4F24918A579F4F22
:1001F000FC0184918823D1F090E0880F991FFC01C5
:10020000EE58FF4FA591B491FC01E458FF4FC59102
:10021000D49161110EC09FB7F8948C91E22FE095B4
:100220008E238C932881E223E8839FBFDF91CF91B7
:1002300008958FB7F894EC91E22BEC938FBFF6CF33
:100240001F93CF93DF93182FEB0161E00E94EF0023
:10025000209739F460E0812FDF91CF911F910C94AA
:10026000A300CF3FD10511F461E0F5CFE12FF0E01D
:10027000E255FF4FE491E33031F140F4E130B1F069
:10028000E230E1F0C038D1057CF7E4CFE73029F166
:10029000E83059F1E430B1F78091800080628093BA
:1002A0008000D0938B00C0938A0004C084B580681E
:1002B00084BDC7BDDF91CF911F91089584B5806241
:1002C00084BDC8BDF7CF8091800080688093800096
:1002D000D0938900C0938800EDCF8091B0008068F2
:1002E0008093B000C093B300E5CF8091B0008062EE
:1002F0008093B000C093B400DDCF3FB7F8948091F5
:100300000E0290910F02A0911002B091110226B539
:10031000A89B05C02F3F19F00196A11DB11D3FBF3D
:10032000BA2FA92F982F8827BC01CD01620F711D0C
:10033000811D911D42E0660F771F881F991F4A9506
:10034000D1F708952FB7F89460910A0270910B02CB
:1003500080910C0290910D022FBF0895AF92BF9231
:10036000CF92DF92EF92FF920F931F93CF93DF9381
:100370006C017B018B01040F151FEB015E01AE18B0
:10038000BF08C017D10759F06991D601ED91FC91D2
:100390000190F081E02DC6010995892B79F7C501FF
:1003A000DF91CF911F910F91FF90EF90DF90CF9051
:1003B000BF90AF900895FC01538D448D252F30E000
:1003C000842F90E0821B930B541710F0CF96089562
:1003D00001970895FC01918D828D981761F0A28D8F
:1003E000AE0FBF2FB11D5D968C91928D9F5F9F7355
:1003F000928F90E008958FEF9FEF0895FC01918D0B
:10040000828D981731F0828DE80FF11D858D90E077
:1004100008958FEF9FEF0895FC01918D228D892F14
:1004200090E0805C9F4F821B91098F7399270895FC
:100430008DE192E00E940C0221E0892B09F420E07A
:10044000822F089580E090E0892B29F00E94180205
:1004500081110C9400000895FC01A48DA80FB92F00
:10046000B11DA35ABF4F2C91848D90E001968F73DC
:100470009927848FA689B7892C93A089B1898C91FB
:10048000837080648C93938D848D981306C002884A
:10049000F389E02D80818F7D80830895EF92FF9214
:1004A0000F931F93CF93DF93EC0181E0888F9B8D97
:1004B0008C8D98131AC0E889F989808185FF15C051
:1004C0009FB7F894EE89FF896083E889F989808174
:1004D0008370806480839FBF81E090E0DF91CF9143
:1004E0001F910F91FF90EF900895F62E0B8D10E065
:1004F0000F5F1F4F0F731127E02E8C8D8E110CC0D4
:100500000FB607FCFACFE889F989808185FFF5CF1E
:10051000CE010E942C02F1CFEB8DEC0FFD2FF11DCF
:10052000E35AFF4FF0829FB7F8940B8FEA89FB895B
:1005300080818062CFCFCF93DF93EC01888D8823B9
:10054000B9F0AA89BB89E889F9898C9185FD03C036
:10055000808186FD0DC00FB607FCF7CF8C9185FF1B
:10056000F2CF808185FFEDCFCE010E942C02E9CF32
:10057000DF91CF910895CF93DF93EC0160E0898103
:100580000E94A30060E08A810E94A3006FEF70E0E8
:1005900088810E9420018FEF9FEF9B878A871986B1
:1005A000DF91CF9108950F931F93CF93DF93EC01C9
:1005B0008B016115710519F16130710551F06F3FC3
:1005C0007F4FC1F4CE01DF91CF911F910F910C9419
:1005D000BB0260E089810E94A30061E08A810E94E1
:1005E000A3006B8170E088810E9420011B870A872D
:1005F00081E08987DF91CF911F910F91089561E08C
:1006000089810E94A30060E08A810E94A3006B811F
:1006100070E088810E9420011B861A86E9CF209114
:100620007A0330917B032817390771F49091D50133
:100630008091D601981741F0E091D501F0E0EB569A
:10064000FE4F808190E008958FEF9FEF0895089509
:10065000EF92FF920F931F93CF93DF93DC015C9691
:10066000ED90FC905D97E114F10479F481E090E065
:1006700013969C938E93129790E080E0DF91CF9138
:100680001F910F91FF90EF9008955196ED91FC917D
:10069000529750968C915097982F90950FB75E96E1
:1006A0002C915E97122F127021FD6095F894208195
:1006B000112319F1282B2083E7012197F1F728E076
:1006C000462F50E0308160FF1AC0382B3083E7019D
:1006D0002197F1F7BA0175956795215089F7112394
:1006E00081F08081892380830FBF5C968D919C91DE
:1006F0000197F1F781E090E0C1CF2923DCCF3923C6
:10070000E5CF9081892BEFCF20917A0330917B0345
:100710002817390771F48091D6012091D50190E016
:10072000805C9F4F821B910960E470E00E943D1243
:10073000089590E080E0089520917A0330917B0342
:1007400028173907B9F49091D5018091D6019817EF
:1007500089F0E091D501F0E0EB56FE4F80812091C9
:10076000D50130E02F5F3F4F2F7333272093D50102
:1007700090E008958FEF9FEF089590E080E0089556
:1007800070E0DC015696ED91FC915797E60FF71F4C
:100790002081222359F0660F771F54968D919C91EA
:1007A000680F791FFB0180819181089590E080E0BE
:1007B00008951F93CF93DF93EC010E948D00FC01FD
:1007C00015852FEF210F233008F07EC060E00E94D6
:1007D000C0030E9499001130F1F46A8F7B8F8C8FD7
:1007E0009D8F0E948D0061E00E94C0030E949900CD
:1007F0006E8F7F8F88A399A30E948D0062E00E9474
:10080000C0030E9499006AA37BA38CA39DA3DF91E0
:10081000CF911F9108951230D9F46EA37FA388A7BA
:1008200099A70E948D0061E00E94C0030E94990078
:100830006AA77BA78CA79DA70E948D0062E00E94FB
:10084000C0030E9499006EA77FA788AB99ABDFCF4A
:100850006AAB7BAB8CAB9DAB0E948D0061E00E94CC
:10086000C0030E9499006EAB7FAB88AF99AF0E9426
:100870008D0062E00E94C0030E9499006AAF7BAFC6
:100880008CAF9DAF153009F44CC01630B1F1183063
:10089000F1F1193009F0BBCF0E948D0060E00E9499
:1008A000C0030E949900FE01E25BFF4F60837183E9
:1008B000828393830E948D0061E00E94C0030E94A6
:1008C0009900C65BDF4F14C0143061F01730D1F6C9
:1008D0000E948D0060E00E94C0030E949900CA5AE5
:1008E000DF4F06C060E00E94C0030E949900EE96B0
:1008F000688379838A839B838ACF0E948D0060E01E
:100900000E94C0030E949900CE5ADF4FF1CF0E948F
:100910008D0060E00E94C0030E949900CA5BDF4F17
:10092000E7CF0E948D0060E00E94C0030E94990002
:10093000CE5BDF4FDDCFCF93DF93EC010E948D00C4
:10094000FC018585813091F41E820E948D0060E05B
:100950000E94C003FC01808188870E948D0060E0B6
:100960000E94C003FC0181818F8307C0823019F48B
:1009700081E08E83EACF8330D9F3DF91CF91089560
:100980008F929F92AF92BF92CF92DF92EF92FF929F
:10099000CF93DF93EC018091D701882359F08091A8
:1009A000150290911602DC01ED91FC910190F0810D
:1009B000E02D09958885811124C00E947D016B017D
:1009C0007C0192E0892E912CA12CB12C0E947D01FA
:1009D0006C197D098E099F09683E73408105910558
:1009E000A8F3B8EECB0EB3E0DB1EE11CF11C8A9439
:1009F00089288A288B2829F0812C912C54018394F2
:100A0000E5CFDF91CF91FF90EF90DF90CF90BF9037
:100A1000AF909F908F90089508950F931F93CF9359
:100A2000DF93EC018A818823E1F010E000E08C89FB
:100A30009D8929892017110681F07CF09801220FE9
:100A4000331F820F931FFC0180819181009711F069
:100A50000E9407130F5F1F4FEACF009711F00E940B
:100A600007138B81882331F08E899F89009711F0BD
:100A70000E9407131B821A821A8A198A1B8A1D8AEE
:100A80001C8A1F8A1E8ADF91CF911F910F910895B2
:100A90008F929F92AF92BF92CF92DF92EF92FF928E
:100AA0000F931F93CF93DF9300D000D0CDB7DEB765
:100AB0008C017B010E94A201809091019090920193
:100AC000A0909301B0909401681979098A099B0953
:100AD000613D77408105910560F089288A288B283F
:100AE00041F0D80119968C91882319F0C8010E9411
:100AF0000D050E94A2016093910170939201809371
:100B0000930190939401F80186858130C9F4818521
:100B1000882329F0E386F1E182E0FE15F8F40F90D6
:100B20000F900F900F90DF91CF911F910F91FF9039
:100B3000EF90DF90CF90BF90AF909F908F900895EF
:100B4000823081F48185882351F3E586E385F0E0E6
:100B5000E65FFE4F82898E1510F383E0D8011E9662
:100B60008C93DDCF833081F581858823C1F2E385C5
:100B7000F0E0E65FFE4F84A18E151F0484F2D801D9
:100B80005396EC92EE20D1F0FF2481E090E0E11446
:100B9000F10409F0C7010E946B12F801978B868B54
:100BA000C701880F991F009711F481E090E00E941F
:100BB0006B12D80155969C938E93549781E0F8015F
:100BC000838384E08687ABCF843009F048C0D801A6
:100BD0008185882309F4A3CFE114F10419F486E098
:100BE000F801F0CFE385F0E0E65FFE4F86A98E15B1
:100BF0001F0424F4C8010E940D0591CF5196EC9179
:100C0000519756968D919C915797E80FF92FF11DAA
:100C1000E08251962C91519730E05696ED91FC91DF
:100C20005797E20FF31F808190E0220F331F5496F5
:100C3000ED90FC90E20EF31E009711F481E090E03D
:100C40000E946B12F7019183808381E0D801129694
:100C50008C9312971E968C911E978F5F80CF853054
:100C600009F03FC08185882309F459CF42898189E1
:100C700090E0A689B789A80FB91F2C91421788F474
:100C8000880F991F24893589820F931FDC018D916C
:100C90009C91FC01E40FF11DE082F80182898F5FD5
:100CA000828BD80151968C9151975696ED91FC917B
:100CB0005797E80FF11D52962C9152979081291366
:100CC0000AC094E01E969C931E9752961C925297CF
:100CD0008F5F51968C93F8019189838998131FCF68
:100CE0007ECF863009F071C08185882309F417CF43
:100CF000E114F10409F013CF8091C6028823D1F0EA
:100D00008AEDC82E82E0D82E8091FE028E151F0437
:100D100009F00CF456C0D6018D919D916D01DC0156
:100D2000ED91FC910190F081E02D0995BFEFEB1A58
:100D3000FB0AEACFF58460E0C8010E94C003DC0131
:100D40008C91F801808B60E0C8010E94C003DC0137
:100D500011968C91F8018787F3E0FF1229C08091EA
:100D6000060190910701A0910801B09109018983C2
:100D70009A83AB83BC8384E090E00E946B12FC01F9
:100D8000138284E08083CE01019692838183FF9356
:100D9000EF9381E08F9383E08F931F921F921F93B5
:100DA0000F930E94FB060FB6F894DEBF0FBECDBFB7
:100DB00080919001882329F010929001F0E0E0E00A
:100DC0000995F8011686118615CF8111A8CEFFEF7F
:100DD000EF16F10409F0A3CED80152961C92529757
:100DE00051961C92519753961C92539781E01996F5
:100DF0008C931997B4CE4F925F926F927F928F929D
:100E00009F92AF92BF92DF92EF92FF920F931F9348
:100E1000CF93DF93CDB7DEB76F970FB6F894DEBFF1
:100E20000FBECDBF09A91AA9DBA8FEA80E94A20186
:100E3000DD2009F458C020911802222309F453C080
:100E40004090190250901A0260901B0270901C0290
:100E5000411451046104710409F445C06419750911
:100E6000860997096F5F7F4F8F4F9F4F6A307105DB
:100E700081059105C0F5809117022AE0420E511CB0
:100E8000611C711C882309F490C01C861D861E8677
:100E90001F861A8A1B8A1C8A198E1B861B821C823B
:100EA0001092BA021A861D821E821F821886198627
:100EB000CE0101965C01909314028093130281E0AD
:100EC000809312020E94A20164157505860597059C
:100ED00008F449C08A85811146C01092140210920C
:100EE00013021092120281E0809318025E01E7E380
:100EF000AE0EB11C6FEFC8010E94C0046D2DC80179
:100F00000E94C0046DA9C8010E94C0046F2DC801D1
:100F10000E94C00490E080E08F2C912C88159905E8
:100F20000CF083C0F501E080F180F2E0AF0EB11C5F
:100F3000D7016C91C8010E94C004712C612CF7018B
:100F400080818615170409F00CF45CC00180F281E1
:100F5000E02DE60DF71D6081C8010E94C004FFEF7F
:100F60006F1A7F0AECCF8091150290911602DC0176
:100F7000ED91FC910084F185E02D0995892B09F410
:100F8000A1CF8091150290911602DC01ED91FC91A8
:100F90000284F385E02D09958F3F980709F492CFDD
:100FA000BC01C5010E9448058DCF0E94A2016415B5
:100FB00075058605970528F0F8018185882309F4D1
:100FC00092CF8091150290911602DC01ED91FC9177
:100FD0000084F185E02D0995892B39F38091150264
:100FE00090911602DC01ED91FC910284F385E02DD5
:100FF00009958F3F9807C9F2BC018BEB92E00E94E4
:101000004805D3CF81E090E0E114F10409F486CFE4
:101010008381882321F0818192810E940713C70177
:101020000E94071381E090E079CF60E0C8010E9440
:10103000C004DD2071F00E94A2016F5F7F4F8F4FCF
:101040009F4F6093190270931A0280931B02909332
:101050001C026F960FB6F894DEBF0FBECDBFDF91B6
:10106000CF911F910F91FF90EF90DF90BF90AF90C5
:101070009F908F907F906F905F904F900895FF9218
:101080000F931F93CF93DF93EC010E948D003B8160
:10109000FC012385321349C085858F3F09F04BC081
:1010A0008A81882309F441C080911702882321F0A6
:1010B0008091BA028823C9F1FF24F394F0921702B9
:1010C0000BEB12E0F092C3021F9283E08F931F920A
:1010D0001F921F930F930E94FB061092C302EC8194
:1010E000FD8109950F900F900F900F900F900F902A
:1010F000809117028823C9F08091BA02811115C02E
:1011000010921702F092C3021F9284E08F931F92F5
:101110001F921F930F930E94FB061092C3020F9021
:101120000F900F900F900F900F90DF91CF911F9124
:101130000F91FF900895E881F9810280F381E02DFD
:10114000CE01DF91CF911F910F91FF9009941F92D3
:101150000F920FB60F9211242F933F938F939F936B
:10116000AF93BF9380910A0290910B02A0910C0261
:10117000B0910D023091090223E0230F2D3758F56D
:101180000196A11DB11D2093090280930A0290933C
:101190000B02A0930C02B0930D0280910E0290916D
:1011A0000F02A0911002B09111020196A11DB11D74
:1011B00080930E0290930F02A0931002B09311023D
:1011C000BF91AF919F918F913F912F910F900FBE43
:1011D0000F901F90189526E8230F0296A11DB11DB0
:1011E000D2CF1F920F920FB60F9211242F933F93DD
:1011F0004F935F936F937F938F939F93AF93BF931F
:10120000EF93FF938DE192E00E942C02FF91EF910A
:10121000BF91AF919F918F917F916F915F914F910E
:101220003F912F910F900FBE0F901F9018951F9216
:101230000F920FB60F9211242F938F939F93EF93DA
:10124000FF93E0912D02F0912E028081E091330214
:10125000F091340282FD1BC09081809136028F5F35
:101260008F7320913702821741F0E0913602F0E04F
:10127000E35EFD4F958F80933602FF91EF919F9132
:101280008F912F910F900FBE0F901F901895808116
:10129000F4CF1F920F920FB60F9211242F933F930A
:1012A0004F935F936F937F938F939F93AF93BF936E
:1012B000EF93FF93E0917A03F0917B03309749F02D
:1012C000A685B7858585968D91FF14C09C9189234D
:1012D000A1F4FF91EF91BF91AF919F918F917F9179
:1012E0006F915F914F913F912F910F900FBE0F9093
:1012F0001F9018959C91892361F7A389B4899C91CB
:101300008589809589238C93868997890197F1F740
:10131000608D718DA685B785558538E020E0CB01BD
:101320000197F1F7822F90E095958795282F4C91A2
:10133000452309F02068315091F7868D81FD209575
:101340008091D60190E001968F7399273091D50155
:10135000381799F0A091D601B0E0AB56BE4F2C9350
:101360008093D601828D938D0197F1F7A389B4897B
:101370008C919589892B8C93ACCF868D8160868FDB
:10138000F1CFCF92DF92EF92FF920F931F93E82F4E
:10139000F92F05C0015011092109310961F190812E
:1013A00096239417B9F305C0015011092109310999
:1013B00011F1908196239413F7CFC12CD12CE12CFD
:1013C000F12C0AC08FEFC81AD80AE80AF80A0C15DF
:1013D0001D052E053F0579F080818623841791F342
:1013E0006C2D7D2D8E2D9F2D1F910F91FF90EF90D5
:1013F000DF90CF90089560E070E080E090E01F9172
:101400000F91FF90EF90DF90CF900895FC018081C5
:101410009181009711F00C940713089580E891E0F2
:1014200090937D0380937C0380917A0390917B035A
:101430008C57934071F4E0918F03F0919003908169
:101440008091910380958923808310927B03109271
:101450007A0387EA93E00E94060A81EA93E00E94F9
:10146000060A8BE993E00C94060ACF93DF93EC0114
:10147000198218821B821A821D821C8261E070E030
:1014800090E080E00E9490130097A1F099838883F8
:101490001B821A822C813D81232B11F4FC011082C6
:1014A0001D821C826EE871E088819981DF91CF9165
:1014B0000C94561488819981009711F00E940713AB
:1014C000198218821D821C821B821A82DF91CF91A1
:1014D0000895CF92DF92EF92FF920F931F93CF93D5
:1014E000DF931092200210921F0228EEC22E23E0FA
:1014F000D22EE12CF12CC0922102D0922202E09255
:101500002302F092240286E591E090931E028093DC
:101510001D0285EC90E090932A028093290284ECCE
:1015200090E090932C0280932B0280EC90E09093BB
:101530002E0280932D0281EC90E0909330028093F4
:101540002F0282EC90E0909332028093310286EC7D
:1015500090E09093340280933302109236021092FE
:10156000370210923802109239028BE993E00E9400
:10157000350A81EA93E00E94350A87EA93E00E94E7
:10158000350A10927F0310927E03C0928003D0929E
:101590008103E0928203F092830380E891E09093CC
:1015A0007D0380937C031092930310929203109218
:1015B0009503109294031092970310929603109241
:1015C00099031092980380919A038E7F8D7F809368
:1015D0009A031092C6021092C7021092C80210928B
:1015E000C9021092CC021092CD021092CE0210923B
:1015F000D3021092C5021092BD021092BE02109248
:10160000BA021092C4021092BF021092C00210924D
:10161000C1021092C2021092C30281E0809374034F
:1016200010927303E091FE02E23161F08E0F80931D
:10163000FE02F0E0EE0FFF1FE652FD4F81E793E060
:101640009183808388E791E0909372038093710384
:10165000109278031092790384E080931A03109219
:101660001903E091FE02E23169F081E08E0F809370
:10167000FE02F0E0EE0FFF1FE652FD4F87E193E020
:101680009183808388E691E09093180380931703F9
:1016900010923103109232031092330310923403EC
:1016A00010923503109236031092370310923803CC
:1016B0001092390310923A0310923B0310923C03AC
:1016C00010923D0310923E0310923F03109240038C
:1016D000109241031092420310924303109244036C
:1016E000109245031092460310924703109248034C
:1016F0001092490310924A0310924B0310924C032C
:1017000010924D0310924E0310924F03109250030B
:1017100010925103109252031092530310925403EB
:1017200010925503109256031092570310925803CB
:101730001092590310925A0310925B0310925C03AB
:1017400010925D0310925E0310925F03109260038B
:10175000109261031092620310926303109264036B
:10176000109265031092660310926703109268034B
:101770001092690310926A0310926B0310926C032B
:1017800010926D0310926E0310926F03109270030B
:1017900085E080930B0384E080930C0387E08093C3
:1017A0000D0304E600930E031092140311E010934E
:1017B000130310920F031092100310921103109252
:1017C0001203CFEFDFEFD0931603C093150361E050
:1017D00085E00E94EF0061E080910C030E94EF0021
:1017E00061E080910D030E94EF0086E08093FF028C
:1017F00088E0809300038CE0809301030093020350
:10180000109208031093070310920303109204032D
:101810001092050310920603D0930A03C0930903A4
:1018200061E086E00E94EF0061E0809100030E9489
:10183000EF0061E080910103DF91CF911F910F9143
:10184000FF90EF90DF90CF900C94EF00CF93DF9359
:1018500000D000D000D0CDB7DEB7789484B58260D8
:1018600084BD84B5816084BD85B5826085BD85B544
:10187000816085BD80916E00816080936E001092C2
:10188000810080918100826080938100809181003D
:1018900081608093810080918000816080938000CE
:1018A0008091B10084608093B1008091B00081602C
:1018B0008093B00080917A00846080937A00809158
:1018C0007A00826080937A0080917A0081608093B0
:1018D0007A0080917A00806880937A001092C1002B
:1018E00060919A036695617081E0682783E00E94A9
:1018F000A30061E083E00E94EF00EDE9F0E0E491F5
:10190000E0938C03E9E8F0E0E491F0E0EE0FFF1FD4
:10191000E458FF4F8591949190938E0380938D03AB
:1019200060E082E00E94EF0080919A0381FD04C094
:1019300061E082E00E94A30082E080938803ECE9EA
:10194000F0E0E491E0938903E8E8F0E0E491F0E06E
:10195000EE0FFF1FE859FF4F8591949190938B03F1
:1019600080938A038CE793E090931602809315028C
:101970008DE991E090939903809398032DEB30E0EB
:1019800030939303209392032BE931E03093950336
:10199000209394032CE231E0309397032093960335
:1019A000209168002460209368002DE630E0309399
:1019B000900320938F0324E0209391030197F1F784
:1019C000E0917A03F0917B0323E0EC37F20709F111
:1019D000309739F0A389B4899C91858980958923B2
:1019E0008C9380919A038E7F80939A031092D601F4
:1019F0001092D5018CE793E090937B0380937A0358
:101A0000E0918F03F0919003808190919103892B55
:101A100080838091D701811113C081E08093D70129
:101A20001F928F931F921F928BEB92E09F938F9345
:101A30000E94FB060F900F900F900F900F900F9049
:101A4000E0912D02F0912E0282E08083E091290244
:101A5000F0912A021082E0912B02F0912C028FEC7F
:101A6000808310923502E0913102F091320286E0DB
:101A70008083E0912F02F091300280818061808329
:101A8000E0912F02F0913002808188608083E091A4
:101A90002F02F0913002808180688083E0912F02D4
:101AA000F091300280818F7D808361E089E00E9427
:101AB000EF0060E08AE00E94EF0022242A94312C9B
:101AC000E090EC01F090ED0160E089E00E94A3005D
:101AD00083E090E00197F1F761E089E00E94A300C4
:101AE00083E290E00197F1F760E089E00E94A300B3
:101AF000E4EAF0E06491E0E9F0E08491E82FF0E0BE
:101B0000EE0FFF1FE859FF4F8591949100E117E216
:101B100020E030E0462F0E94C10961157105810562
:101B2000910529F06F5F7F4F8F4F9F4F9F709701F7
:101B3000220F331F28523E4F3A8329839B0177FFA0
:101B400002C02F5F3F4FB90175956795072E000CB6
:101B5000880B990B0E94CF0F2DEC3CEC48EE51E422
:101B60000E9490110E940212A981BA816D937C9308
:101B70008091EC019091ED0101966AE070E00E9485
:101B80003D129093ED018093EC01E8EDF1E090E0DF
:101B900080E021913191243131051CF4232B09F08F
:101BA00001962CEE31E02E173F0799F721E00797B9
:101BB0000CF420E020930802809115029091160207
:101BC000DC01ED91FC910084F185E02D0995892BD4
:101BD00011F181E08093BF0280911502909116026D
:101BE000DC01ED91FC910084F185E02D0995892BB4
:101BF00091F08091150290911602DC01ED91FC911B
:101C00000284F385E02D0995BC0177278BEB92E0E8
:101C10000E944805E1CF8090350390903603A09054
:101C20003703B09038038092EE019092EF01A092BA
:101C3000F001B092F101C0903103D0903203E090F6
:101C40003303F0903403C0920002D0920102E0927C
:101C50000202F09203028091390390913A03A0911D
:101C60003B03B0913C0389839A83AB83BC8380930D
:101C7000040290930502A0930602B09307022091FC
:101C80007703109178031170211110E0812F90E0FB
:101C90009093FD018093FC010091780306950170FB
:101CA000211100E0802F90E09093FB018093FA01D6
:101CB000A091FE01B091FF01BE83AD83B093F70107
:101CC000A093F601B093F901A093F80120E030E071
:101CD000A901C501B4010E94381218160CF03FC0CA
:101CE00020E030E048E151E4C501B4010E94C80F92
:101CF00087FF35C020E030E040EF51E4C501B4017A
:101D00000E942E102B013C01ED81FE81BF01FF0FCF
:101D1000880B990B0E94CF0F4B015C01AC019B011A
:101D2000C301B2010E9424110E9402127093F701B4
:101D30006093F601A3019201C501B4010E94231131
:101D40000E9402127093F9016093F8011092F5015C
:101D50001092F4011092F3011092F20148C020E0B9
:101D600030E048E151ECC501B4010E943812181668
:101D7000FCF420E030E0A901C501B4010E94C80FC5
:101D800087FF16C020E030E0A901C501B4010E9420
:101D9000241120E030E040EF51E40E942E102B018E
:101DA0003C012D813E81B901330F880B990BB2CFD5
:101DB00020E030E048E151E4C501B4010E9438124E
:101DC00018160CF064C03092F7012092F60180E8FA
:101DD00090E09093F9018093F8011092F501109230
:101DE000F401A1E0B0E0B093F301A093F20180917F
:101DF000F6019091F701863491050CF063C086E4FA
:101E000090E09093F7018093F6018091F801909112
:101E1000F901863491050CF05FC0A6E4B0E0B09300
:101E2000F901A093F801002309F473C0111178C0DF
:101E30008091F4019091F501019709F057C010923B
:101E4000F5011092F4018091F2019091F301019754
:101E500009F053C01092F3011092F2018091F80141
:101E6000809302038091F60180930E036091F40148
:101E70007091F5018FEF92E00E94D3026091F20120
:101E80007091F3018BE093E00E94D30251C020E0F7
:101E900030E048E151ECC501B4010E94C80F87FF52
:101EA000A6CFE0E8F0E0F093F701E093F60130927E
:101EB000F9012092F80121E030E03093F501209300
:101EC000F40148CF8F3F910509F00CF49ECF30927A
:101ED000F7012092F60199CF8F3F910509F00CF49C
:101EE000A2CF3092F9012092F8019DCFE1E0F0E01D
:101EF000F093F501E093F401A6CF21E030E03093B8
:101F0000F3012093F201AACF1092FF011092FE017B
:101F100026C0112329F080910802882309F49ECF5E
:101F20008BE093E00E94BB028FEF92E00E94BB0225
:101F3000A701960169817A818B819C810E9423117E
:101F400020E030E040EF51E40E942E100E94021287
:101F500066347105CCF27093FF016093FE018091AD
:101F6000FE019091FF018F3F910529F024F03092FE
:101F7000FF012092FE0180E090E0892B09F4A0CDC2
:101F80000E941802882309F49BCD0E94000098CD7E
:101F90000E940A1008F481E00895E89409C097FBB4
:101FA0003EF490958095709561957F4F8F4F9F4F30
:101FB0009923A9F0F92F96E9BB279395F695879574
:101FC00077956795B795F111F8CFFAF4BB0F11F437
:101FD00060FF1BC06F5F7F4F8F4F9F4F16C08823DE
:101FE00011F096E911C0772321F09EE8872F762F14
:101FF00005C0662371F096E8862F70E060E02AF055
:102000009A95660F771F881FDAF7880F9695879540
:1020100097F90895990F0008550FAA0BE0E8FEEF15
:1020200016161706E807F907C0F012161306E4079C
:10203000F50798F0621B730B840B950B39F40A2695
:1020400061F0232B242B252B21F408950A2609F473
:10205000A140A6958FEF811D811D08950E9441101A
:102060000C94B2100E94A41038F00E94AB1020F023
:10207000952311F00C949B100C94A11011240C9436
:10208000E6100E94C31070F3959FC1F3950F50E0C6
:10209000551F629FF001729FBB27F00DB11D639F1A
:1020A000AA27F00DB11DAA1F649F6627B00DA11DC0
:1020B000661F829F2227B00DA11D621F739FB00D66
:1020C000A11D621F839FA00D611D221F749F3327D6
:1020D000A00D611D231F849F600D211D822F762F6F
:1020E0006A2F11249F5750409AF0F1F088234AF04C
:1020F000EE0FFF1FBB1F661F771F881F91505040B8
:10210000A9F79E3F510580F00C949B100C94E610AB
:102110005F3FE4F3983ED4F3869577956795B7953E
:10212000F795E7959F5FC1F7FE2B880F911D969558
:10213000879597F9089597F99F6780E870E060E0C8
:1021400008959FEF80EC089500240A941616170650
:1021500018060906089500240A9412161306140698
:1021600005060895092E0394000C11F4882352F0FB
:10217000BB0F40F4BF2B11F460FF04C06F5F7F4FB3
:102180008F4F9F4F089557FD9058440F551F59F09A
:102190005F3F71F04795880F97FB991F61F09F3F54
:1021A00079F087950895121613061406551FF2CF7D
:1021B0004695F1DF08C0161617061806991FF1CFCD
:1021C00086957105610508940895E894BB276627F4
:1021D0007727CB0197F908952F923F924F925F9204
:1021E0006F927F928F929F92AF92BF92CF92DF9227
:1021F000EF92FF920F931F93CF93DF93CDB7DEB78C
:10220000CA1BDB0B0FB6F894DEBF0FBECDBF09941F
:102210002A88398848885F846E847D848C849B8476
:10222000AA84B984C884DF80EE80FD800C811B8184
:10223000AA81B981CE0FD11D0FB6F894DEBF0FBEB3
:10224000CDBFED0108955058BB27AA270E943B112E
:102250000C94B2100E94A41038F00E94AB1020F031
:1022600039F49F3F19F426F40C94A1100EF4E09574
:10227000E7FB0C949B10E92F0E94C31058F3BA1788
:10228000620773078407950720F079F4A6F50C948C
:10229000E5100EF4E0950B2EBA2FA02D0B01B9011D
:1022A00090010C01CA01A0011124FF27591B99F0CC
:1022B000593F50F4503E68F11A16F040A22F232FD8
:1022C000342F4427585FF3CF469537952795A79528
:1022D000F0405395C9F77EF41F16BA0B620B730BCF
:1022E000840BBAF09150A1F0FF0FBB1F661F771F40
:1022F000881FC2F70EC0BA0F621F731F841F48F4F5
:10230000879577956795B795F7959E3F08F0B0CF7D
:102310009395880F08F09927EE0F97958795089564
:102320000E94A4110C94B2100E94AB1058F00E94AD
:10233000A41040F029F45F3F29F00C949B10511138
:102340000C94E6100C94A1100E94C31068F399231A
:10235000B1F3552391F3951B550BBB27AA276217A1
:102360007307840738F09F5F5F4F220F331F441FAE
:10237000AA1FA9F335D00E2E3AF0E0E832D09150E2
:102380005040E695001CCAF72BD0FE2F29D0660FCF
:10239000771F881FBB1F261737074807AB07B0E812
:1023A00009F0BB0B802DBF01FF2793585F4F3AF018
:1023B0009E3F510578F00C949B100C94E6105F3F03
:1023C000E4F3983ED4F3869577956795B795F7959E
:1023D0009F5FC9F7880F911D9695879597F9089586
:1023E000E1E0660F771F881FBB1F62177307840722
:1023F000BA0720F0621B730B840BBA0BEE1F88F731
:10240000E09508950E9409126894B1110C94E610A9
:1024100008950E94CB1088F09F5798F0B92F992704
:10242000B751B0F0E1F0660F771F881F991F1AF0BF
:10243000BA95C9F714C0B13091F00E94E510B1E02F
:1024400008950C94E510672F782F8827B85F39F02E
:10245000B93FCCF3869577956795B395D9F73EF458
:1024600090958095709561957F4F8F4F9F4F089500
:102470000E940A1008F48FEF089597FB072E16F4B8
:10248000009407D077FD09D00E94511207FC05D0B7
:102490003EF4909581959F4F0895709561957F4F7B
:1024A0000895AA1BBB1B51E107C0AA1FBB1FA6179B
:1024B000B70710F0A61BB70B881F991F5A95A9F7ED
:1024C00080959095BC01CD010895EE0FFF1F0590FA
:1024D000F491E02D09940F931F93CF93DF938230F3
:1024E000910510F482E090E0E091AF03F091B00329
:1024F00030E020E0B0E0A0E0309799F421153105FC
:1025000009F44AC0281B390B24303105D8F58A81DB
:102510009B816115710589F1FB0193838283FE0123
:1025200011C0408151810281138148175907E0F0A1
:102530004817590799F4109761F012960C93129767
:1025400013961C933296CF01DF91CF911F910F917B
:1025500008950093AF031093B003F4CF2115310514
:1025600051F04217530738F0A901DB019A01BD0170
:10257000DF01F801C1CFEF01F9CF9093B003809351
:10258000AF03CDCFFE01E20FF31F81939193225051
:10259000310939832883D7CF2091AD033091AE0321
:1025A000232B41F420910201309103013093AE03BB
:1025B0002093AD03209100013091010121153105D7
:1025C00041F42DB73EB74091040150910501241B01
:1025D000350BE091AD03F091AE03E217F307A0F4E1
:1025E0002E1B3F0B2817390778F0AC014E5F5F4F69
:1025F0002417350748F04E0F5F1F5093AE034093EA
:10260000AD03819391939FCFF0E0E0E09CCFCF9317
:10261000DF930097E9F0FC01329713821282A091B8
:10262000AF03B091B003ED0130E020E01097A1F4CA
:1026300020813181820F931F2091AD033091AE0331
:102640002817390709F061C0F093AE03E093AD039A
:10265000DF91CF910895EA01CE17DF07E8F54A81AF
:102660005B819E0141155105B1F7E901FB83EA83C6
:1026700049915991C40FD51FEC17FD0761F4808172
:1026800091810296840F951FE90199838883828145
:1026900093819B838A83F0E0E0E012968D919C9178
:1026A00013970097B9F52D913C911197CD010296A2
:1026B000820F931F2091AD033091AE032817390785
:1026C00039F6309751F51092B0031092AF03B093E2
:1026D000AE03A093AD03BCCFD383C28340815181AD
:1026E000840F951FC817D90761F44E5F5F4F88812B
:1026F0009981480F591F518340838A819B8193831D
:1027000082832115310509F0B0CFF093B003E09337
:10271000AF039ECFFD01DC01C0CF13821282D7CF61
:10272000B0E0A0E0E6E9F3E10C94EE108C01009734
:1027300051F4CB010E946B128C01C801CDB7DEB7FA
:10274000E0E10C940A11FC01E60FF71F9C012250F6
:102750003109E217F30708F49DC0D901CD91DC914E
:102760001197C617D70798F0C530D10530F3CE01C1
:1027700004978617970708F3C61BD70B2297C193B8
:10278000D1936D937C93CF010E940713D6CF5B0149
:10279000AC1ABD0A4C018C0E9D1EA091AF03B091E6
:1027A000B003512C412CF12CE12C109731F5809184
:1027B000AD039091AE038815990509F05CC04616EB
:1027C000570608F058C080910001909101010097D0
:1027D00041F48DB79EB74091040150910501841BCF
:1027E000950BE817F90708F055C0F093AE03E09396
:1027F000AD03F90171836083A0CF8D919C911197F6
:1028000012966C90129713967C901397A815B905A1
:1028100059F56C0142E0C40ED11CCA14DB0420F14E
:10282000AC014A195B09DA011296159780F06282B1
:10283000738251834083D9016D937C93E114F10439
:1028400071F0D7011396FC93EE93129776CF2296F0
:102850008C0F9D1FF90191838083F301EFCFF093DB
:10286000B003E093AF0369CF4816590608F42C0172
:102870007D01D3019ACFCB010E946B127C0100979E
:1028800049F0AE01B8010E944D14C8010E9407131F
:10289000870153CF10E000E050CFFB01DC0102C004
:1028A00001900D9241505040D8F70895FB01DC0192
:1028B00001900D920020E1F7089510E0C2E6D0E00B
:1028C00004C0FE010E9465122196C336D107C9F7E4
:0428D000F894FFCFAA
:1028D4000000B103800003010502000102030405A6
:1028E400060708090A0B0C0D0E0F1011030302034F
:1028F400090402000203030406050305050301019C
:10290400FF01030101000201011A0201010A0AFF89
:102914000502FF20040201000402010332FF010A40
:102924000AFF000000004E02AE01DB019B020C0214
:10293400EA01FE01000000003F08D9030000000086
:102944003F080C05000000003F089B040000000045
:102954002803AE01BD03270384039C030F03000077
:00000001FF
