:100000000C9463000C948B000C948B000C945C0398
:100010000C945C030C945C030C948B000C948B008C
:100020000C948B000C948B000C948B000C948B0024
:100030000C948B000C948B000C948B000C948B0014
:100040000C9412030C948B000C948B000C948B007A
:100050000C948B000C948B000C948B000C948B00F4
:100060000C948B000C948B000000000023002600F1
:10007000290000000000240027002A0000000000E2
:10008000250028002B0004040404040404040202D4
:100090000202020203030303030301020408102007
:1000A0004080010204081020010204081020000012
:1000B0000008000201000003040700000000000027
:1000C0000000FB03D40311241FBECFEFD8E0DEBF36
:1000D000CDBF11E0A0E0B1E0E8E4FFE002C0059090
:1000E0000D92AA31B107D9F721E0AAE1B1E001C030
:1000F0001D92AF3BB207E1F710E0C2E6D0E004C0CA
:100100002197FE010E949F05C136D107C9F70E94C1
:1001100039040C9497070C94000090E0FC01E25520
:10012000FF4F2491FC01E656FF4F3491FC01EA5742
:10013000FF4FE491EE23C9F0222339F0233001F17F
:10014000A8F4213019F1223029F1F0E0EE0FFF1F61
:10015000E458FF4FA591B4918FB7F894EC916111D9
:1001600026C030953E233C938FBF08952730A9F0D9
:100170002830C9F0243049F7809180008F7D03C07A
:10018000809180008F7780938000DFCF84B58F7758
:1001900084BDDBCF84B58F7DFBCF8091B0008F779E
:1001A0008093B000D2CF8091B0008F7DF9CF3E2BED
:1001B000DACFCF93DF9390E0FC01E656FF4F249116
:1001C0008A579F4FFC0184918823D1F090E0880FDB
:1001D000991FFC01EE58FF4FA591B491FC01E45822
:1001E000FF4FC591D49161110EC09FB7F8948C91C7
:1001F000E22FE0958E238C932881E223E8839FBF32
:10020000DF91CF9108958FB7F894EC91E22BEC93A6
:100210008FBFF6CF3FB7F89480915E0190915F0158
:10022000A0916001B091610126B5A89B05C02F3F48
:1002300019F00196A11DB11D3FBFBA2FA92F982F0C
:100240008827BC01CD01620F711D811D911D42E007
:10025000660F771F881F991F4A95D1F70895AF92AF
:10026000BF92CF92DF92EF92FF920F931F93CF93A3
:10027000DF936C017B018B01040F151FEB015E0105
:10028000AE18BF08C017D10759F06991D601ED919A
:10029000FC910190F081E02DC6010995892B79F739
:1002A000C501DF91CF911F910F91FF90EF90DF90EB
:1002B000CF90BF90AF90089520918801309189012F
:1002C0002817390771F490915A0180915B019817B2
:1002D00041F0E0915A01F0E0E65EFE4F808190E04F
:1002E00008958FEF9FEF08950895EF92FF920F9377
:1002F0001F93CF93DF93DC015C96ED90FC905D97AC
:10030000E114F10479F481E090E013969C938E93CC
:10031000129790E080E0DF91CF911F910F91FF90B5
:10032000EF9008955196ED91FC91529750968C91D3
:100330005097982F90950FB75E962C915E97122F3D
:10034000127021FD6095F8942081112319F1282B5A
:100350002083E7012197F1F728E0462F50E0308114
:1003600060FF1AC0382B3083E7012197F1F7BA01FB
:1003700075956795215089F7112381F08081892334
:1003800080830FBF5C968D919C910197F1F781E07E
:1003900090E0C1CF2923DCCF3923E5CF9081892B91
:1003A000EFCF20918801309189012817390771F426
:1003B00080915B0120915A0190E0805C9F4F821BED
:1003C000910960E470E00E947705089590E080E074
:1003D0000895209188013091890128173907B9F4CF
:1003E00090915A0180915B01981789F0E0915A0130
:1003F000F0E0E65EFE4F808120915A0130E02F5FF1
:100400003F4F2F73332720935A0190E008958FEFC9
:100410009FEF089590E080E008958F929F92AF92B1
:10042000BF92CF92DF92EF92FF92CF93DF93EC01D6
:1004300080915C01882359F0809166019091670159
:10044000DC01ED91FC910190F081E02D099588850A
:10045000811124C00E940A016B017C0192E0892E67
:10046000912CA12CB12C0E940A016C197D098E09D6
:100470009F09683E734081059105A8F3B8EECB0E45
:10048000B3E0DB1EE11CF11C8A9489288A288B28A2
:1004900029F0812C912C54018394E5CFDF91CF91E9
:1004A000FF90EF90DF90CF90BF90AF909F908F9094
:1004B00008958F929F92AF92BF92CF92DF92EF9268
:1004C000FF920F931F93CF93DF93CDB7DEB70F85C6
:1004D0001889CC888FB7F8944091620150916301DC
:1004E00060916401709165018FBF81E08093680124
:1004F0004E0185E1880E911C6FEFC8010E940D022C
:1005000060E0C8010E940D026B89C8010E940D02C3
:100510006C2DC8010E940D0290E080E0D12C8C155A
:100520009D059CF5F401E080F180A2E08A0E911C0B
:10053000F7016081C8010E940D02B12CA12CD701E6
:100540008C918A151B0471F06CF01196ED91FC9161
:10055000EA0DFB1D6081C8010E940D02BFEFAB1ABE
:10056000BB0AEDCF81E090E0E114F104C1F2F701A4
:100570008381882321F0818192810E944106C701F5
:100580000E94410681E090E0CACF60E0C8010E946D
:100590000D02DF91CF911F910F91FF90EF90DF90AF
:1005A000CF90BF90AF909F908F900895FC01808175
:1005B0009181009711F00C9441060895CF93DF9339
:1005C000EC01198218821B821A821D821C8261E052
:1005D00070E090E080E00E94CA060097A1F0998345
:1005E00088831B821A822C813D81232B11F4FC010C
:1005F00010821D821C8268E171E088819981DF91FF
:10060000CF910C94900788819981009711F00E94F6
:100610004106198218821D821C821B821A82DF9178
:10062000CF9108951F920F920FB60F9211242F931E
:100630003F938F939F93AF93BF938091620190916B
:100640006301A0916401B091650130915D0123E0E7
:10065000230F2D3758F50196A11DB11D20935D0183
:100660008093620190936301A0936401B09365014C
:1006700080915E0190915F01A0916001B091610154
:100680000196A11DB11D80935E0190935F01A0931F
:100690006001B0936101BF91AF919F918F913F91A4
:1006A0002F910F900FBE0F901F90189526E8230FE3
:1006B0000296A11DB11DD2CF1F920F920FB60F92BD
:1006C00011242F933F934F935F936F937F938F9357
:1006D0009F93AF93BF93EF93FF93E0918801F091C5
:1006E0008901309749F0A685B7858585968D91FF5C
:1006F00014C09C918923A1F4FF91EF91BF91AF9118
:100700009F918F917F916F915F914F913F912F9129
:100710000F900FBE0F901F9018959C91892361F741
:10072000A389B4899C918589809589238C93868936
:1007300097890197F1F7608D718DA685B7855585ED
:1007400038E020E0CB010197F1F7822F90E09595FA
:100750008795282F4C91452309F02068315091F757
:10076000868D81FD209580915B0190E001968F73CD
:10077000992730915A01381799F0A0915B01B0E0A8
:10078000A65EBE4F2C9380935B01828D938D019763
:10079000F1F7A389B4898C919589892B8C93ACCF7F
:1007A000868D8160868FF1CF8AE091E090938B01F6
:1007B00080938A0180918801909189018A589140A3
:1007C00071F4E0919D01F0919E01908180919F01D3
:1007D000809589238083109289011092880185EB8E
:1007E00091E00E94D6028FEA91E00E94D60289EA47
:1007F00091E00C94D60289EA91E00E94DE028FEA31
:1008000091E00E94DE0285EB91E00E94DE02EAE8C0
:10081000F1E01382128288EE93E0A0E0B0E08483DE
:100820009583A683B7838AE091E091838083178ABA
:10083000168A118E108E138E128E158E148EE8EA83
:10084000F1E080818E7F8D7F8083E9E6F1E0138681
:10085000148615861686118A128A138A108E1286BD
:1008600012821382118614821582168217821086D4
:100870000895789484B5826084BD84B5816084BD18
:1008800085B5826085BD85B5816085BD80916E002E
:10089000816080936E00109281008091810082605F
:1008A000809381008091810081608093810080919C
:1008B00080008160809380008091B100846080938B
:1008C000B1008091B00081608093B00080917A0087
:1008D000846080937A0080917A00826080937A00AD
:1008E00080917A00816080937A0080917A0080689C
:1008F00080937A001092C1006091A80166956170A2
:1009000081E0682783E00E948D0061E083E00E941F
:10091000D900EDE9F0E0E491E0939A01E9E8F0E034
:10092000E491F0E0EE0FFF1FE458FF4F85919491A2
:1009300090939C0180939B0160E082E00E94D9002B
:100940008091A80181FD04C061E082E00E948D00D9
:1009500082E080939601ECE9F0E0E491E093970166
:10096000E8E8F0E0E491F0E0EE0FFF1FE859FF4FF8
:100970008591949190939901809398018AE891E0F0
:1009800090936701809366018DE991E09093A701B0
:100990008093A6012DEB30E03093A1012093A001BC
:1009A0002BE931E03093A3012093A2012CE231E046
:1009B0003093A5012093A401209168002460209326
:1009C00068002DE630E030939E0120939D0124E0E5
:1009D00020939F010197F1F7E0918801F09189013F
:1009E00081E0EA38F80709F1309739F0A389B48932
:1009F0009C918589809589238C938091A8018E7F15
:100A00008093A80110925B0110925A018AE891E04C
:100A10009093890180938801E0919D01F0919E015E
:100A2000808190919F01892B808380915C0181114D
:100A300013C081E080935C011F928F931F921F92DD
:100A400089E691E09F938F930E9459020F900F9037
:100A50000F900F900F900F9061E08DE00E94D900F1
:100A6000C0E0D0E080916D0161E0811101C060E0E3
:100A70008DE00E948D002097A9F30E940000F2CF24
:100A80002F923F924F925F926F927F928F929F929E
:100A9000AF92BF92CF92DF92EF92FF920F931F938C
:100AA000CF93DF93CDB7DEB7CA1BDB0B0FB6F8943D
:100AB000DEBF0FBECDBF09942A88398848885F847D
:100AC0006E847D848C849B84AA84B984C884DF80EE
:100AD000EE80FD800C811B81AA81B981CE0FD11DD2
:100AE0000FB6F894DEBF0FBECDBFED01089597FBA2
:100AF000072E16F4009407D077FD09D00E948B05CD
:100B000007FC05D03EF4909581959F4F0895709510
:100B100061957F4F0895AA1BBB1B51E107C0AA1F17
:100B2000BB1FA617B70710F0A61BB70B881F991F8E
:100B30005A95A9F780959095BC01CD010895EE0FC7
:100B4000FF1F0590F491E02D09940F931F93CF930D
:100B5000DF938230910510F482E090E0E091BD01D6
:100B6000F091BE0130E020E0B0E0A0E0309799F4D1
:100B70002115310509F44AC0281B390B24303105F1
:100B8000D8F58A819B816115710589F1FB019383F9
:100B90008283FE0111C04081518102811381481777
:100BA0005907E0F04817590799F4109761F0129629
:100BB0000C93129713961C933296CF01DF91CF912D
:100BC0001F910F9108950093BD011093BE01F4CFC2
:100BD0002115310551F04217530738F0A901DB0107
:100BE0009A01BD01DF01F801C1CFEF01F9CF909368
:100BF000BE018093BD01CDCFFE01E20FF31F8193B3
:100C000091932250310939832883D7CF2091BB019A
:100C10003091BC01232B41F420910201309103015A
:100C20003093BC012093BB01209100013091010160
:100C30002115310541F42DB73EB740910401509183
:100C40000501241B350BE091BB01F091BC01E217BB
:100C5000F307A0F42E1B3F0B2817390778F0AC01DF
:100C60004E5F5F4F2417350748F04E0F5F1F5093BC
:100C7000BC014093BB01819391939FCFF0E0E0E0F2
:100C80009CCFCF93DF930097E9F0FC01329713825A
:100C90001282A091BD01B091BE01ED0130E020E0D3
:100CA0001097A1F420813181820F931F2091BB0105
:100CB0003091BC012817390709F061C0F093BC01DD
:100CC000E093BB01DF91CF910895EA01CE17DF07D2
:100CD000E8F54A815B819E0141155105B1F7E901B3
:100CE000FB83EA8349915991C40FD51FEC17FD0787
:100CF00061F4808191810296840F951FE9019983A7
:100D00008883828193819B838A83F0E0E0E012965E
:100D10008D919C9113970097B9F52D913C91119766
:100D2000CD010296820F931F2091BB013091BC012F
:100D30002817390739F6309751F51092BE011092F5
:100D4000BD01B093BC01A093BB01BCCFD383C283D0
:100D500040815181840F951FC817D90761F44E5FF8
:100D60005F4F88819981480F591F518340838A8141
:100D70009B81938382832115310509F0B0CFF093D5
:100D8000BE01E093BD019ECFFD01DC01C0CF138207
:100D90001282D7CFB0E0A0E0E0EDF6E00C9442057F
:100DA0008C01009751F4CB010E94A5058C01C8016C
:100DB000CDB7DEB7E0E10C945E05FC01E60FF71F4E
:100DC0009C0122503109E217F30708F49DC0D901B4
:100DD000CD91DC911197C617D70798F0C530D10592
:100DE00030F3CE0104978617970708F3C61BD70B7D
:100DF0002297C193D1936D937C93CF010E944106BA
:100E0000D6CF5B01AC1ABD0A4C018C0E9D1EA09181
:100E1000BD01B091BE01512C412CF12CE12C109759
:100E200031F58091BB019091BC018815990509F0BD
:100E30005CC04616570608F058C08091000190919A
:100E40000101009741F48DB79EB740910401509184
:100E50000501841B950BE817F90708F055C0F093BE
:100E6000BC01E093BB01F90171836083A0CF8D9138
:100E70009C91119712966C90129713967C901397F1
:100E8000A815B90559F56C0142E0C40ED11CCA146D
:100E9000DB0420F1AC014A195B09DA0112961597BF
:100EA00080F06282738251834083D9016D937C9379
:100EB000E114F10471F0D7011396FC93EE931297AD
:100EC00076CF22968C0F9D1FF90191838083F301C9
:100ED000EFCFF093BE01E093BD0169CF48165906EC
:100EE00008F42C017D01D3019ACFCB010E94A50506
:100EF0007C01009749F0AE01B8010E948707C80144
:100F00000E944106870153CF10E000E050CFFB0163
:100F1000DC0102C001900D9241505040D8F7089575
:100F2000FB01DC0101900D920020E1F7089510E033
:100F3000C2E6D0E004C0FE010E949F052196C336A0
:080F4000D107C9F7F894FFCFB7
:100F48000000BF0180000000000075012F010A02A7
:0A0F58007401D101E9015C01000001
:00000001FF
